:1000000000000220DD0600000507000007070000D1
:10001000090700000B0700000D07000000000000AA
:100020000000000000000000000000000F070000BA
:100030001107000000000000130700001507000072
:100040001707000017070000170700001707000038
:100050001707000017070000170700001707000028
:100060001707000017070000170700001707000018
:100070001707000017070000170700001707000008
:1000800017070000170700001707000017070000F8
:1000900017070000170700001707000017070000E8
:1000A00017070000170700001707000017070000D8
:1000B0001707000017070000000000000000000004
:1000C00017070000170700001707000017070000B8
:1000D00017070000170700001707000017070000A8
:1000E00017070000000000000000000000000000F2
:1000F00000000000170700000000000017070000C4
:1001000000000000000000000000000000000000EF
:1001100000000000000000000000000000000000DF
:1001200000000000000000000000000000000000CF
:1001300000000000000000000000000000000000BF
:1001400000000000000000000000000000000000AF
:10015000000000000000000000000000000000009F
:10016000000000000000000000000000000000008F
:10017000000000000000000000000000000000007F
:10018000000000000000000000000000000000006F
:10019000000000000000000000000000000000005F
:1001A000000000000000000000000000000000004F
:1001B000000000000000000000000000000000003F
:1001C000000000000000000000000000000000002F
:1001D000000000000000000000000000000000001F
:1001E000000000000000000000000000000000000F
:1001F00000000000000000000000000000000000FF
:1002000010B5054C237833B9044B13B10448AFF350
:1002100000800123237010BD400400200000000076
:10022000E809000008B5034B1BB103490348AFF3CD
:10023000008008BD0000000044040020E809000020
:10024000A3F5803A704700BF174B002B08BF134B34
:100250009D46FFF7F5FF00218B460F461348144AD1
:10026000121A00F08DFA0E4B002B00D098470D4B60
:10027000002B00D098470020002104000D000D48FD
:10028000002802D00C4800F039FB00F055FA20009D
:10029000290000F09FF800F03FFA00BF00000800BE
:1002A00000000000000000000000022040040020C8
:1002B00060040020FD0800000909000080B400AFC0
:1002C0004FF0A0430022C3F838274FF0A04300228C
:1002D000C3F85C274FF0A0430122C3F854274FF026
:1002E000A0430122C3F858274FF0A0430122C3F8CE
:1002F0003C274FF0A0430122C3F860274FF0A043F2
:100300000122C3F84C274FF0A0430122C3F8702705
:100310004FF0A0430122C3F82C274FF0A043012245
:10032000C3F87C27064B0122C3F814274FF0A043E3
:100330000122C3F8782700BFBD4680BC704700BFCC
:100340000003005080B400AF4FF0A0434FF4001200
:10035000C3F808254FF0A0434FF48002C3F80825E6
:100360004FF0A0434FF40042C3F808254FF0A043DC
:100370004FF08072C3F808254FF0A0434FF40022DD
:10038000C3F8082500BFBD4680BC704780B400AFED
:100390004FF0A0434FF40012C3F80C254FF0A043D8
:1003A0004FF48002C3F80C254FF0A0434FF40042F5
:1003B000C3F80C254FF0A0434FF08072C3F80C2512
:1003C0004FF0A0434FF40022C3F80C2500BFBD46F8
:1003D00080BC704780B582B000AFFFF76FFF00238D
:1003E0007B604FF0A043D3F8103503F40003002BDB
:1003F00001D1FFF7A7FF4FF0A043D3F8103503F466
:100400008043002B01D1FFF7C1FF42F210737B60E4
:100410007B68013B7B607B68002BF9D1E1E7000042
:1004200080B483B000AF0E4B1B687B600D4B1B6824
:100430003B607B680D2B0CD13B68002B03D03B68E5
:10044000012B02D003E0012304E0012302E0012399
:1004500000E0002318460C37BD4680BC704700BF43
:10046000300100103401001080B483B000AF0E4B97
:100470001B687B600D4B1B683B607B680D2B0CD1B0
:100480003B68002B03D03B68012B02D003E0012323
:1004900004E0012302E0012300E0002318460C37AA
:1004A000BD4680BC704700BF300100103401001011
:1004B00080B483B000AF0E4B1B687B600D4B1B6894
:1004C0003B607B680D2B0CD13B68002B03D03B6855
:1004D000012B02D003E0012304E0012302E0012309
:1004E00000E0002318460C37BD4680BC704700BFB3
:1004F000300100103401001080B483B000AF0E4B07
:100500001B687B600D4B1B683B607B680D2B0CD11F
:100510003B68002B03D03B68012B02D003E0002393
:1005200004E0012302E0012300E0002318460C3719
:10053000BD4680BC704700BF300100103401001080
:1005400080B500AFFFF7D8FF0346002B07D04FF070
:1005500010234FF08042D3F80832C2F8583500BF5C
:1005600080BD000080B400AF034B044A1A6000BF96
:10057000BD4680BC704700BF000000200090D00343
:1005800080B500AFFFF74CFF0346002B0ED04FF0B5
:1005900080430022C3F80C214FF080430022C3F8AF
:1005A00010214FF080430022C3F83825FFF75CFF8D
:1005B0000346002B76D04FF08053474AD3F80434DB
:1005C000C2F820354FF08053434AD3F80834C2F8BC
:1005D00024354FF08053404AD3F80C34C2F8283504
:1005E0004FF080533C4AD3F81034C2F82C354FF00A
:1005F0008053394AD3F81434C2F830354FF0805361
:10060000354AD3F81834C2F834354FF08053324AA3
:10061000D3F81C34C2F840354FF080532E4AD3F83B
:100620002034C2F844354FF080532B4AD3F8243499
:10063000C2F848354FF08053274AD3F82834C2F81F
:100640004C354FF08053244AD3F82C34C2F850353F
:100650004FF08053204AD3F83034C2F854354FF06D
:1006600080531D4AD3F83434C2F860354FF08053BC
:10067000194AD3F83834C2F864354FF08053164A1B
:10068000D3F83C34C2F868354FF08053124AD3F89F
:100690004034C2F86C354FF080530F4AD3F84434DD
:1006A000C2F87035FFF704FF0346002B0DD04FF062
:1006B0008043D3F8003403F00103002B05D04FF042
:1006C00080436FF00102C3F80024FFF739FFFFF702
:1006D00049FF00BF80BD00BF00C000400649074A77
:1006E000074B9B1A03DD043BC858D050FBDCFFF7D7
:1006F00047FFFFF7A9FD0000F409000000000020FB
:1007000040040020FEE7FEE7FEE7FEE7FEE7FEE727
:10071000FEE7FEE7FEE7FEE708B50021044600F02D
:100720008BF8044B1868C36B03B19847204600F060
:100730004BF900BFE409000070B50D4E0D4D761B5E
:10074000B61006D0002455F8043B01349847A64261
:10075000F9D1094E094D761B00F038F9B61006D0D4
:10076000002455F8043B01349847A642F9D170BDE6
:1007700034040020340400203C0400203404002011
:10078000830730B548D0541E002A3FD0CAB2034672
:1007900001E0013C3AD303F8012B9D07F9D1032C6A
:1007A0002DD9CDB245EA05250F2C45EA054536D9A8
:1007B000A4F1100222F00F0C03F1200EE6444FEAE0
:1007C000121C03F1100242E9045542E902551032AD
:1007D0007245F8D10CF1010214F00C0F03EB021278
:1007E00004F00F0C13D0ACF1040323F00303043323
:1007F000134442F8045B9342FBD10CF003042CB188
:10080000CAB21C4403F8012B9C42FBD130BD6446A4
:100810001346002CF4D1F9E703461446BFE71A4605
:10082000A446E0E7024B13B1024800F067B87047F6
:1008300000000000090900002DE9F04F2D4B83B0A6
:1008400083461868CDF804B00F4600F073F82A4BC1
:10085000D3F80080D8F848619EB14FF001094FF0FD
:10086000000A7468651E0CD4013406EB84047FB161
:10087000D4F80031BB420BD0013D6B1CA4F1040441
:10088000F5D11C4B186803B0BDE8F04F00F054B828
:1008900073682268013BAB420CBF7560C4F800A0CE
:1008A000002AE9D0D6F88801D6F804B009FA05F193
:1008B00001420BD1904772685A4512D1D8F848319D
:1008C000B342D9D01E46002ECBD1DAE7D6F88C0140
:1008D00001420BD1D4F880100198904772685A45B4
:1008E000ECD0D8F84861002EBBD1CAE7D4F880001C
:1008F0009047E0E730040020E409000000230146AF
:100900001A46184600F01AB838B5084B084D5B1B5C
:100910009C1007D0043B1D44013C55F8043998470E
:10092000002CF9D1BDE8384000F056B84004002052
:100930003C040020704700BF704700BF2DE9F0471E
:10094000DFF87CA00646DAF8000098460F4691468C
:10095000FFF7F0FF1B4B1B68D3F8484124B36568D1
:100960001F2D26DC5EB96B1C0235DAF800006360CF
:1009700044F82570FFF7E0FF0020BDE8F08704EBA6
:1009800085010123C1F88890D4F88821AB401A432F
:10099000022EC4F88821C1F80881E4D1D4F88C2152
:1009A0001343C4F88C31DEE703F5A674C3F848415D
:1009B000D5E7DAF80000FFF7BFFF4FF0FF30DCE7C4
:1009C00030040020E4090000FEE700BFF8B500BFD6
:1009D000F8BC08BC9E467047F8B500BFF8BC08BC20
:0C09E0009E467047080000200000000048
:0809EC0054F8FF7F0100000038
:1009F4000090D0030000000000000000F40200207A
:100A04005C030020C403002000000000000000007C
:100A140000000000000000000000000000000000D2
:100A240000000000000000000000000000000000C2
:100A340000000000000000000000000000000000B2
:100A440000000000000000000000000000000000A2
:100A54000000000000000000000000000000000092
:100A64000000000000000000000000000000000082
:100A74000000000000000000000000000000000072
:100A84000000000000000000000000000000000062
:100A94000000000000000000000000000000000052
:100AA40001000000000000000E33CDAB34126DE6EF
:100AB400ECDE05000B000000000000000000000058
:100AC4000000000000000000000000000000000022
:100AD4000000000000000000000000000000000012
:100AE4000000000000000000000000000000000002
:100AF40000000000000000000000000000000000F2
:100E24005C040020250800002502000001020000E7
:04000003000006DD16
:00000001FF
